:020000040800F2
:1000000090040020D500000865100008CB0E000801
:1000100000000000000000000000000000000000E0
:10002000000000000000000000000000AF10000809
:100030000000000000000000AD100008B110000832
:10004000E7000008E7000008E7000008E7000008F4
:10005000E7000008E7000008E70000086501000865
:10006000E7000008E7000008E7000008E7000008D4
:10007000E7000008E7000008E70000085511000845
:1000800065110008E7000008E7000008E700000825
:10009000E7000008E7000008E7000008E7000008A4
:1000A000E7000008E7000008E7000008E700000894
:1000B000E7000008E7000008E7000008E700000884
:1000C0000348854600F03CF800480047A5140008A6
:1000D000900400200448804704480047FEE7FEE7FC
:1000E000FEE7FEE7FEE7FEE7F9100008C1000008A2
:1000F00030B50B46014600202022012409E00D46C0
:10010000D5409D4205D31D469540491B2546954047
:1001100040191546521E002DF1DC30BDD2B201E06F
:100120000270401C491EFBD270470022F6E710B552
:1001300013460A4604461946FFF7F0FF204610BD55
:10014000064C0125064E05E0E36807CC2B430C3C2A
:1001500098471034B442F7D3FFF7B6FF04150008F0
:100160002415000810B5402000F014F8802000F09D
:1001700011F810BD0649402805D0802802D14868F2
:10018000401C486070470868401C086070470000C9
:100190000000002010B504494A69024202D04861BB
:1001A000FFF7E8FF10BD000000040140F8B5002390
:1001B00093E0224601249C40A44622407ED04C6815
:1001C000022C01D0122C0CD1DC08A40027183C6AA8
:1001D0005D07ED0E0F26AE40B4430E69AE402643D8
:1001E0003E6205685E000324B4400F79A543BF0753
:1001F000BF0FB7402F4307604D68012D05D0022D7A
:1002000003D0112D01D0122D0ED18568CF68A543E2
:10021000B7402F43876047686546AF430D79ED06C9
:10022000ED0F9D403D434560C568A5438C68B440D3
:100230002C43C4604C68E4004ED52B4CA5690126C4
:100240003543A561A4699D0834400094274CAD0056
:100250002F19BC689D072E0F0F25B540AC4309250B
:10026000ED06A84201D1002514E0214DA84201D19C
:1002700001250FE01F4DA84201D102250AE01E4DC5
:10028000A84201D1032505E01C4DA84201D1042557
:1002900000E00525B5402543BD60194C25684E6832
:1002A0009543F60300D51543256065684E68954370
:1002B000B60300D515436560A56800E00CE04E6804
:1002C0009543F60200D51543A560E5684E68954351
:1002D000B60200D51543E5605B1C0A681446DA4097
:1002E00000D066E7F8BD00000010024000000140A9
:1002F0000004004800080048000C004800100048B6
:1003000000040140002A01D081617047816270477A
:10031000014800687047000008000020024801689A
:10032000491C0160704700000800002010B5064815
:100330000168102211430160002000F007F800F06E
:1003400017F8002010BD00000020024010B5044640
:1003500000F0DAF87D21C900FFF7CAFE00F00AFBC1
:1003600000222146501E00F021F8002010BD0000A0
:1003700008B50848816901221143816181691140F2
:100380000091C26901040A43C261C069084000903B
:1003900008BD000000100240C106C90E01208840BF
:1003A000014908607047000000E100E010B500F06E
:1003B0005BFE10BDF8B505464E480E460068C00706
:1003C000C00FB0420AD24B48016849084900314386
:1003D00001600068C007C00FB04270D12878464C59
:1003E000800705D56068F0218843A96808436060EC
:1003F0002878C00753D06868012817D0022818D081
:10040000032819D021688907002958DA616889080A
:10041000890001436160FFF77BFF69680746012996
:1004200013D002291DD0032927D034E02168890385
:10043000EAE721688901E7E7616BC903E4E7FFF7B1
:1004400067FFC11B2D48814223D860680007800FD9
:100450000128F4D123E0FFF75BFFC11B274881424D
:1004600017D860680007800F0228F4D117E0FFF763
:100470004FFFC11B214881420BD860680007800FE5
:100480000328F4D10BE0FFF743FFC11B1B48814257
:1004900001D90320F8BD60680007800FF3D115482B
:1004A0000168C907C90FB1420BD901684908490061
:1004B000314301600068C007C00FB04201D0012085
:1004C000F8BD2878400706D56068072109028843EF
:1004D000E9680843606000F01DF86168084A090691
:1004E000090F515CC840074908600020FFF72EFF44
:1004F0000020F8BD002002400010024088130000D8
:10050000F41400080C000020014800687047000047
:100510000C00002030B516A30FCB89B06C460FC479
:1005200017A30FCB0FC41A494A680C201446044085
:100530001848042C05D0184B082C04D00C2C00D1E2
:10054000184609B030BD9402240F6D462C5DC96A6F
:1005500004AD0907090FD203695C920F022A02D089
:10056000032A00D11846FFF7C3FD6043E9E7000006
:1005700002030405060708090A0B0C0D0E0F1010E4
:100580000102030405060708090A0B0C0D0E0F10E3
:100590000010024000127A00006CDC02FEB5044636
:1005A0000078F04EF04DC00748D068680007800F13
:1005B00001281FD068680007800F022804D16868EE
:1005C000C003800F022815D06168012919D00120CD
:1005D0008004002901D0052917D02968B14329607A
:1005E000296881432960606800281BD0FFF790FECE
:1005F000074613E02868800320D56068002876D07D
:100600001CE0286830432860EDE729680143296031
:10061000F7E7FFF77DFEC01B642869D828688003D0
:10062000F7D50BE0FFF774FE074604E0FFF770FE16
:10063000C01B6428F1D828688003F7D4207880078D
:100640003ED568680007800F14D068680007800FE7
:10065000022804D16868C003800F01280AD0E0682E
:10066000002828681DD0012108432860FFF750FEAC
:1006700007460BE0286880070BD5E068012836D1D3
:1006800007E0FFF745FEC01B0228C6D82868800790
:10069000F7D52868F82188432169C90008432860F4
:1006A0000EE0400840002860FFF732FE074604E0F5
:1006B000FFF72EFEC01B0228AFD828688007F7D4AA
:1006C0002078000724D5E0690028686A11D001214C
:1006D00008436862FFF71CFE074604E0FFF718FEB8
:1006E000C01B022899D8686A8007F7D510E036E168
:1006F000D1E0400840006862FFF70AFE074604E0C8
:10070000FFF706FEC01B022887D8686A8007F7D467
:10071000207804274007002861DA00200190E8696A
:10072000C00008D4E969B8060143E961E9690140FC
:100730000120009101908D480168C90511D401681C
:10074000821511430160FFF7E3FD009005E0FFF71C
:10075000DFFD0099401A642897D884480068C005D6
:10076000F5D5A06801280AD0002801D0052811D0AD
:10077000286A400840002862286AB84302E0286AD4
:10078000012108432862A068002812D0FFF7C0FDAD
:1007900000900AE0286A38432862F0E7FFF7B8FDC6
:1007A0000099411A7248814275D8286A8007F5D5A8
:1007B0000DE0FFF7ADFD009006E0FFF7A9FD009901
:1007C000411A6B48814266D8286A8007F5D401989F
:1007D000002804D0E969012000078143E9612078FD
:1007E000C00635D5606901280CD0401D686B24D047
:1007F00038436863686B400840006863FFF788FD12
:10080000074622E0686B38436863686B0121084340
:100810006863FFF77DFD074604E0FFF779FDC01B25
:10082000022838D8686B8007F7D5686BF8218843B1
:10083000A169C900084368630AE0B8436863F4E744
:10084000FFF766FDC01B022825D8686B8007F7D428
:100850002078800637D568680007800F032813D0FA
:1008600068680007800F022804D16868C003800F01
:10087000032809D0206A0028686B16D030436863CB
:10088000FFF746FD06460CE0686BC0031BD5206AE7
:10089000012864D117E05BE0FFF73AFD801B0228D6
:1008A00056D8686BC003F7D50DE0B0436863FFF717
:1008B0002FFD064604E0FFF72BFD801B022847D8DA
:1008C000686BC003F7D4606A002846D069680907DE
:1008D000890F022943D0012636060228286805D050
:1008E000B0432860FFF714FD044633E0B0432860AE
:1008F000FFF70EFD074604E0FFF70AFDC01B0228C4
:1009000026D828688001F7D4E86A216B0009000125
:100910000843E862A16AE06A084369687B22D2035F
:10092000914308436860286830432860FFF7F0FC73
:10093000044604E0FFF7ECFC001B022808D82868F6
:100940008001F7D509E0FFF7E3FC001B022801D97D
:100950000320FEBD28688001F5D40020FEBD0120E3
:10096000FEBD0000000001000010024000700040C9
:1009700088130000094910B5401E884201D90120A2
:1009800010BD074C60610321081F00F06DFB0020C3
:10099000A06107202061002010BD0000FFFFFF00C4
:1009A00000E000E07047704770B502462032137FC8
:1009B000012B1BD001231377022454770468656848
:1009C0007026B5436560046865680E6835436560E8
:1009D0000468A5688026B543A560006884684968F6
:1009E0000C43846053770020107770BD022070BDE7
:1009F00070B5040005D025462035687F002802D058
:100A000006E0012070BD00202877204600F00AF89B
:100A100002206877211D206800F0ACFB0120687778
:100A2000002070BD08B5012201689207114891426B
:100A30000DD1C16901221143C161C069104000227A
:100A4000009011460F20FFF7B1FC0F200FE00A4A7B
:100A500091420ED1C26902210A43C261C0690022DB
:100A60000840009011461020FFF7A0FC1020FFF76F
:100A700093FC08BD0010024000040040F8B5054694
:100A800004462035287F012817D001272F77022020
:100A90006877226890687726FF23B0431B0298434B
:100AA00090600868502837D00EDC202857D006DC2C
:100AB00000284ED0102840D14EE00220F8BD30284A
:100AC00050D0402839D13CE060282DD0702817D074
:100AD00001221203801A0ED090422ED1CB684A68B0
:100AE0008968206800F09BFB2068816801229203DE
:100AF0001143816021E020688168C908C900F8E7D6
:100B0000CB684A688968206800F089FB216888689A
:100B1000B0433043886010E0CA684968206800F03C
:100B20008DFC5021206806E0CA684968206800F002
:100B300096FC6021206800F07DFB6F77002028770D
:100B4000F8BDCA684968206800F078FC4021206838
:100B5000F1E700212068EEE710212068EBE7202173
:100B60002068E8E730212068E5E7704770B5044663
:100B7000006801690025C9438907002915DBC168A0
:100B8000C943890711D4E91E01610120207720683B
:100B900080698007204602D0FFF7E7FF04E000F0FD
:100BA000D3F8204600F054F9257720680169C9433D
:100BB000490717D4C168C943490713D40421C9435D
:100BC000016102202077206880698005800F20461F
:100BD00002D0FFF7CAFF04E000F0B6F8204600F0AC
:100BE00037F9257720680169C943090716D4C16818
:100BF000C943090712D40821C943016104202077A1
:100C00002068C0698007204602D0FFF7AEFF04E0ED
:100C100000F09AF8204600F01BF92577206801695A
:100C2000C943C90617D4C168C943C90613D41021E2
:100C3000C9430161082020772068C0698005800FC2
:100C4000204602D0FFF791FF04E000F07DF8204637
:100C500000F0FEF8257720680169C943C90708D16B
:100C6000C168C943C90704D1891E0161204600F04B
:100C700019F920680169C943090609D4C168C94343
:100C8000090605D48021C94301612046FFF78AFE89
:100C900020680169C943490609D4C168C9434906A6
:100CA00005D44021C9430161204600F00DF92068B8
:100CB0000169C943890609D4C168C943890605D4B5
:100CC0002021C94301612046FFF76DFE70BD000081
:100CD00010B586B0044614216846FFF726FA23684B
:100CE0000124A407002215480221A3420FD1446920
:100CF0000B041C43446140691840059003206B4677
:100D000007C30491092003926946C00611E00C4C08
:100D1000A34210D144691B131C434461406918402D
:100D2000059030206B4607C301200490694603926A
:100D30000448FFF73BFA06B010BD00000010024067
:100D400000040040000400487047F8B50646044619
:100D50002036307F0D4601280DD00120307702204B
:100D600070770427002A08D0042A16D0082A2AD02F
:100D70000C2A4DD137E00220F8BD206800F062FA5D
:100D80002068816908221143816120688169B94323
:100D90008161206881692A6912E0206800F096FA72
:100DA000206882690121C9020A4382612068816941
:100DB0000122920291438161206881692A691202AD
:100DC0001143816124E0206800F0C0FA2068C26904
:100DD00008210A43C2612068C169B943C161206822
:100DE000C1692A6912E0206800F0F2FA2068C1693E
:100DF0000122D2021143C1612068C2690121890226
:100E00008A43C2612068C1692A6912021143C16123
:100E10000120707700203077F8BD70B5040005D050
:100E200025462035687F002802D006E0012070BDED
:100E300000202877204600F00AF802206877211D5C
:100E4000206800F097F901206877002070BD704796
:100E50007047000010B504460068012200F0D4F984
:100E60000C482168814208D00B48814205D00B48CC
:100E7000814202D00A48814204D1486C0122D20347
:100E8000104348642068016801221143016000207A
:100E900010BD0000002C0140004001400044014012
:100EA0000048014000680649884207D105493220C0
:100EB0000968486303494031096848637047000086
:100EC00000040040100000207047FEE770B586B0B7
:100ED00014216846FFF729F91E4842690121490497
:100EE0000A43426142690A400592426949000A4345
:100EF00042614069184E08400D11059000222946B4
:100F00003046FFF7FFF93F200002002400900194D3
:100F1000694602943046FFF749F901200190029496
:100F20006946009503943046FFF740F9C0200090D1
:100F30000A480190694602943046FFF737F90022CB
:100F400011460720FFF732FA0720FFF725FA06B00F
:100F500070BD0000001002400004004800001110A5
:100F600010B58EB000240794089409940A940B9449
:100F70001C2168460C94FFF7D8F80121174889070F
:100F800001602F2184604160046163218461C1603C
:100F9000FFF72EFD01200003079007A90F48FFF778
:100FA0006DFD0E48FFF739FF0B940BA90B480C940D
:100FB000FFF7FAFC60200090019402940022694639
:100FC00004940648FFF7C1FE042269460348FFF770
:100FD000BCFE0248FFF77CFE0EB010BD10000020E2
:100FE00010B58EB000240794089409940A940B94C9
:100FF0001C2168460C94FFF798F8194817490160BE
:101000002F2184604160046163218461C160FFF726
:10101000EFFC01200003079007A91148FFF72EFD00
:101020000F48FFF7FAFE0B940BA90D480C94FFF73D
:10103000BBFC602000900194029400226946049455
:101040000748FFF782FE042269460548FFF77DFE48
:101050000348FFF73DFE0EB010BD00000004004045
:1010600050000020704700008307FF22DB0E9A40EB
:101070008907090E994000280BDA0007000F08388D
:10108000830808489B001818C36993430B43C36146
:101090007047830804489B001B1818689043084356
:1010A0001860704700ED00E000E400E07047704712
:1010B00010B5FFF733F910BD10B592B03421684672
:1010C000FFF733F800240F94202000900D940120A6
:1010D0000E940890109409946846FFF75FFA072071
:1010E0000D9003200E900F94012110940DA8FFF78E
:1010F00061F912B010BD00001248016801221143CD
:1011000001604168104A1140416001680F4A114076
:1011100001600168012292049143016041683F220D
:10112000120491434160C16A09090901C162016B5E
:10113000074A11400163416B49084900416300219E
:1011400081607047001002400CB8FF08FFFFF6FEF8
:101150002CFEFCFF10B50248FFF708FD10BD000093
:101160001000002010B50248FFF700FD10BD000080
:1011700050000020F0B502681D4B0124A4071D4D4E
:10118000984203D0A04201D0A84203D17026B243B6
:101190004E683243184E194F98420DD0A0420BD0E2
:1011A000A84209D0164CA04206D0B04204D0B842A2
:1011B00002D0144CA04204D103242402A243CC68E0
:1011C00022438024A2434C69224302608A68C2629F
:1011D0000A688262984206D0B04204D0B84202D077
:1011E000084A904201D10969016301214161F0BDC2
:1011F000002C014000040040004001400044014038
:10120000002000400048014010B50123046A8B40D3
:101210009C430462036A8A401343036210BD30B5E5
:101220008468FF252D021B021343AC430B43234369
:10123000836030BD826870239A430A4307210A43C2
:1012400082607047F0B5026A520852000262056A75
:10125000436882697024A24392080C689200144388
:10126000022295438A68164E2A43144DA84207D09D
:10127000B04205D0134FB84202D0134FB84206D146
:101280000827BA43CF681743042297433A46A84237
:1012900007D0B04205D00B4DA84202D00A4DA8425B
:1012A00006D103252D02AB434D691D438B692B43AA
:1012B00043608461496841630262F0BD002C0140D3
:1012C00000400140004401400048014070B5026AFE
:1012D00010239A430262056A4268836973242402D8
:1012E000A3430C6824021C4320239D438B681B01ED
:1012F0002B43124DA84208D11D46CB688026B5432A
:101300001B012B434025AB4308E00D4DA84205D0FF
:101310000C4DA84202D00C4DA84208D10325AD02C5
:10132000AA434D69AD0015438A6992002A43426081
:10133000846149688163036270BD0000002C014034
:1013400000400140004401400048014070B5026A7D
:10135000FF2301339A430262056A4368C26970241D
:10136000A24392080C689200144301225202954352
:101370008A6812022A43124DA84208D11546CA684B
:10138000C614B54312022A430515AA4308E00D4DC1
:10139000A84205D00C4DA84202D00C4DA84208D15D
:1013A00003252D03AB434D692D011D438B691B01A3
:1013B0002B434360C4614968C163026270BD000091
:1013C000002C014000400140004401400048014021
:1013D00030B5026A01231B039A430262046A426821
:1013E000C36973252D02AB430D682D021D430123F4
:1013F0005B039C438B681B0323430C4CA04208D027
:101400000B4CA04205D00B4CA04202D00A4CA0428B
:1014100005D10124A403A2434C69A40122434260E4
:10142000C56149680164036230BD0000002C0140C1
:1014300000400140004401400048014030B5036ACB
:10144000046A6408640004628469F025AC431201F4
:1014500022430A24A3430B438261036230BD30B5AB
:10146000036A1024A34303628469036A0F252D03D2
:101470001203AC432243A024A34309011943826110
:10148000016230BD02E008C8121F08C1002AFAD16B
:1014900070477047002001E001C1121F002AFBD1F4
:1014A00070470000FEF742FFFFF706FEFFF70EFD54
:1014B000FFF796FDFFF754FD00210D48FFF7CAFC2A
:1014C00004210B48FFF7C6FC094800214030FFF714
:1014D000C1FC074804214030FFF7BCFC04490A4620
:1014E00040323220136858630B685863FAE70000F3
:1014F00010000020000000000000000001020304B2
:10150000060708092415000800000020100000004C
:101510008414000834150008100000208004000026
:10152000941400080000000000000000000000000B
:0415300000127A002B
:04000005080000C12E
:00000001FF
